{
  "_format": "hh-sol-artifact-1",
  "contractName": "BuyMyRoom",
  "sourceName": "contracts/BuyMyRoom.sol",
  "abi": [
    {
      "inputs": [],
      "stateMutability": "nonpayable",
      "type": "constructor"
    },
    {
      "anonymous": false,
      "inputs": [
        {
          "indexed": false,
          "internalType": "uint256",
          "name": "tokenId",
          "type": "uint256"
        },
        {
          "indexed": false,
          "internalType": "uint256",
          "name": "price",
          "type": "uint256"
        },
        {
          "indexed": false,
          "internalType": "address",
          "name": "owner",
          "type": "address"
        }
      ],
      "name": "HouseListed",
      "type": "event"
    },
    {
      "anonymous": false,
      "inputs": [
        {
          "indexed": false,
          "internalType": "uint256",
          "name": "tokenId",
          "type": "uint256"
        },
        {
          "indexed": false,
          "internalType": "uint256",
          "name": "price",
          "type": "uint256"
        },
        {
          "indexed": false,
          "internalType": "address",
          "name": "previousOwner",
          "type": "address"
        },
        {
          "indexed": false,
          "internalType": "address",
          "name": "newOwner",
          "type": "address"
        }
      ],
      "name": "HousePurchased",
      "type": "event"
    },
    {
      "inputs": [
        {
          "internalType": "uint256",
          "name": "tokenId",
          "type": "uint256"
        }
      ],
      "name": "buyHouse",
      "outputs": [],
      "stateMutability": "payable",
      "type": "function"
    },
    {
      "inputs": [],
      "name": "getHouses",
      "outputs": [],
      "stateMutability": "nonpayable",
      "type": "function"
    },
    {
      "inputs": [],
      "name": "getListedHouses",
      "outputs": [
        {
          "components": [
            {
              "internalType": "uint256",
              "name": "tokenID",
              "type": "uint256"
            },
            {
              "internalType": "address",
              "name": "owner",
              "type": "address"
            },
            {
              "internalType": "uint256",
              "name": "listedTimestamp",
              "type": "uint256"
            },
            {
              "internalType": "uint256",
              "name": "price",
              "type": "uint256"
            },
            {
              "internalType": "bool",
              "name": "isListed",
              "type": "bool"
            }
          ],
          "internalType": "struct BuyMyRoom.House[]",
          "name": "",
          "type": "tuple[]"
        }
      ],
      "stateMutability": "view",
      "type": "function"
    },
    {
      "inputs": [],
      "name": "getOwnedHouses",
      "outputs": [
        {
          "components": [
            {
              "internalType": "uint256",
              "name": "tokenID",
              "type": "uint256"
            },
            {
              "internalType": "address",
              "name": "owner",
              "type": "address"
            },
            {
              "internalType": "uint256",
              "name": "listedTimestamp",
              "type": "uint256"
            },
            {
              "internalType": "uint256",
              "name": "price",
              "type": "uint256"
            },
            {
              "internalType": "bool",
              "name": "isListed",
              "type": "bool"
            }
          ],
          "internalType": "struct BuyMyRoom.House[]",
          "name": "",
          "type": "tuple[]"
        }
      ],
      "stateMutability": "view",
      "type": "function"
    },
    {
      "inputs": [
        {
          "internalType": "uint256",
          "name": "",
          "type": "uint256"
        }
      ],
      "name": "houses",
      "outputs": [
        {
          "internalType": "uint256",
          "name": "tokenID",
          "type": "uint256"
        },
        {
          "internalType": "address",
          "name": "owner",
          "type": "address"
        },
        {
          "internalType": "uint256",
          "name": "listedTimestamp",
          "type": "uint256"
        },
        {
          "internalType": "uint256",
          "name": "price",
          "type": "uint256"
        },
        {
          "internalType": "bool",
          "name": "isListed",
          "type": "bool"
        }
      ],
      "stateMutability": "view",
      "type": "function"
    },
    {
      "inputs": [
        {
          "internalType": "uint256",
          "name": "tokenId",
          "type": "uint256"
        },
        {
          "internalType": "uint256",
          "name": "price",
          "type": "uint256"
        }
      ],
      "name": "listHouse",
      "outputs": [],
      "stateMutability": "nonpayable",
      "type": "function"
    },
    {
      "inputs": [],
      "name": "platform",
      "outputs": [
        {
          "internalType": "address",
          "name": "",
          "type": "address"
        }
      ],
      "stateMutability": "view",
      "type": "function"
    },
    {
      "inputs": [
        {
          "internalType": "uint256",
          "name": "tokenId",
          "type": "uint256"
        }
      ],
      "name": "unlistHouse",
      "outputs": [],
      "stateMutability": "nonpayable",
      "type": "function"
    }
  ],
  "bytecode": "0x6080604052600060035534801561001557600080fd5b50336000806101000a81548173ffffffffffffffffffffffffffffffffffffffff021916908373ffffffffffffffffffffffffffffffffffffffff160217905550611777806100656000396000f3fe60806040526004361061007b5760003560e01c8063eddc42691161004e578063eddc426914610140578063f275481b1461015c578063f4dcb9c114610185578063fd5f33ec146101b05761007b565b80634bde38c8146100805780638d9590ee146100ab57806399b23178146100d6578063aeda852f146100ff575b600080fd5b34801561008c57600080fd5b506100956101c7565b6040516100a29190610eab565b60405180910390f35b3480156100b757600080fd5b506100c06101eb565b6040516100cd9190611020565b60405180910390f35b3480156100e257600080fd5b506100fd60048036038101906100f89190611073565b610453565b005b34801561010b57600080fd5b50610126600480360381019061012191906110b3565b6105dd565b6040516101379594939291906110fe565b60405180910390f35b61015a600480360381019061015591906110b3565b610640565b005b34801561016857600080fd5b50610183600480360381019061017e91906110b3565b6108f5565b005b34801561019157600080fd5b5061019a610a35565b6040516101a79190611020565b60405180910390f35b3480156101bc57600080fd5b506101c5610c1d565b005b60008054906101000a900473ffffffffffffffffffffffffffffffffffffffff1681565b6060600080600190505b6003548111610289573373ffffffffffffffffffffffffffffffffffffffff166001600083815260200190815260200160002060010160009054906101000a900473ffffffffffffffffffffffffffffffffffffffff1673ffffffffffffffffffffffffffffffffffffffff160361027657818061027290611180565b9250505b808061028190611180565b9150506101f5565b5060008167ffffffffffffffff8111156102a6576102a56111c8565b5b6040519080825280602002602001820160405280156102df57816020015b6102cc610e23565b8152602001906001900390816102c45790505b509050600080600190505b6003548111610449573373ffffffffffffffffffffffffffffffffffffffff166001600083815260200190815260200160002060010160009054906101000a900473ffffffffffffffffffffffffffffffffffffffff1673ffffffffffffffffffffffffffffffffffffffff160361043657600160008281526020019081526020016000206040518060a0016040529081600082015481526020016001820160009054906101000a900473ffffffffffffffffffffffffffffffffffffffff1673ffffffffffffffffffffffffffffffffffffffff1673ffffffffffffffffffffffffffffffffffffffff16815260200160028201548152602001600382015481526020016004820160009054906101000a900460ff16151515158152505083838151811061041c5761041b6111f7565b5b6020026020010181905250818061043290611180565b9250505b808061044190611180565b9150506102ea565b5081935050505090565b3373ffffffffffffffffffffffffffffffffffffffff166001600084815260200190815260200160002060010160009054906101000a900473ffffffffffffffffffffffffffffffffffffffff1673ffffffffffffffffffffffffffffffffffffffff16146104f7576040517f08c379a00000000000000000000000000000000000000000000000000000000081526004016104ee906112a9565b60405180910390fd5b6000811161053a576040517f08c379a000000000000000000000000000000000000000000000000000000000815260040161053190611315565b60405180910390fd5b426001600084815260200190815260200160002060020181905550806001600084815260200190815260200160002060030181905550600180600084815260200190815260200160002060040160006101000a81548160ff0219169083151502179055507f60b3e540896cf4a419e7b7274a1f1282223f5d92ca6f0152cf820fe457fb48438282336040516105d193929190611335565b60405180910390a15050565b60016020528060005260406000206000915090508060000154908060010160009054906101000a900473ffffffffffffffffffffffffffffffffffffffff16908060020154908060030154908060040160009054906101000a900460ff16905085565b60006001600083815260200190815260200160002090508060040160009054906101000a900460ff166106a8576040517f08c379a000000000000000000000000000000000000000000000000000000000815260040161069f906113b8565b60405180910390fd5b806003015434146106ee576040517f08c379a00000000000000000000000000000000000000000000000000000000081526004016106e590611424565b60405180910390fd5b60008160010160009054906101000a900473ffffffffffffffffffffffffffffffffffffffff1690506000620151806103e860328560020154426107329190611444565b86600301546107419190611478565b61074b9190611478565b61075591906114e9565b61075f91906114e9565b90508260010160009054906101000a900473ffffffffffffffffffffffffffffffffffffffff1673ffffffffffffffffffffffffffffffffffffffff166108fc82346107ab9190611444565b9081150290604051600060405180830381858888f193505050501580156107d6573d6000803e3d6000fd5b5060008054906101000a900473ffffffffffffffffffffffffffffffffffffffff1673ffffffffffffffffffffffffffffffffffffffff166108fc829081150290604051600060405180830381858888f1935050505015801561083d573d6000803e3d6000fd5b50338360010160006101000a81548173ffffffffffffffffffffffffffffffffffffffff021916908373ffffffffffffffffffffffffffffffffffffffff16021790555060008360040160006101000a81548160ff02191690831515021790555060008360020181905550600083600301819055507fd798a2bf4cc113586b3bb2f66307aadadeacc2560a0415dd09ac1d8f87b3f190843484336040516108e7949392919061151a565b60405180910390a150505050565b3373ffffffffffffffffffffffffffffffffffffffff166001600083815260200190815260200160002060010160009054906101000a900473ffffffffffffffffffffffffffffffffffffffff1673ffffffffffffffffffffffffffffffffffffffff1614610999576040517f08c379a0000000000000000000000000000000000000000000000000000000008152600401610990906115d1565b60405180910390fd5b600115156001600083815260200190815260200160002060040160009054906101000a900460ff16151514610a03576040517f08c379a00000000000000000000000000000000000000000000000000000000081526004016109fa9061163d565b60405180910390fd5b60006001600083815260200190815260200160002060040160006101000a81548160ff02191690831515021790555050565b6060600080600190505b6003548111610a93576001600082815260200190815260200160002060040160009054906101000a900460ff1615610a80578180610a7c90611180565b9250505b8080610a8b90611180565b915050610a3f565b5060008167ffffffffffffffff811115610ab057610aaf6111c8565b5b604051908082528060200260200182016040528015610ae957816020015b610ad6610e23565b815260200190600190039081610ace5790505b509050600080600190505b6003548111610c13576001600082815260200190815260200160002060040160009054906101000a900460ff1615610c0057600160008281526020019081526020016000206040518060a0016040529081600082015481526020016001820160009054906101000a900473ffffffffffffffffffffffffffffffffffffffff1673ffffffffffffffffffffffffffffffffffffffff1673ffffffffffffffffffffffffffffffffffffffff16815260200160028201548152602001600382015481526020016004820160009054906101000a900460ff161515151581525050838381518110610be657610be56111f7565b5b60200260200101819052508180610bfc90611180565b9250505b8080610c0b90611180565b915050610af4565b5081935050505090565b60001515600260003373ffffffffffffffffffffffffffffffffffffffff1673ffffffffffffffffffffffffffffffffffffffff16815260200190815260200160002060009054906101000a900460ff16151514610cb0576040517f08c379a0000000000000000000000000000000000000000000000000000000008152600401610ca7906116cf565b60405180910390fd5b60005b6003811215610dc85760036000815480929190610ccf90611180565b91905055506040518060a0016040528060035481526020013373ffffffffffffffffffffffffffffffffffffffff1681526020016000815260200160008152602001600015158152506001600060035481526020019081526020016000206000820151816000015560208201518160010160006101000a81548173ffffffffffffffffffffffffffffffffffffffff021916908373ffffffffffffffffffffffffffffffffffffffff160217905550604082015181600201556060820151816003015560808201518160040160006101000a81548160ff0219169083151502179055509050508080610dc0906116f9565b915050610cb3565b506001600260003373ffffffffffffffffffffffffffffffffffffffff1673ffffffffffffffffffffffffffffffffffffffff16815260200190815260200160002060006101000a81548160ff021916908315150217905550565b6040518060a0016040528060008152602001600073ffffffffffffffffffffffffffffffffffffffff16815260200160008152602001600081526020016000151581525090565b600073ffffffffffffffffffffffffffffffffffffffff82169050919050565b6000610e9582610e6a565b9050919050565b610ea581610e8a565b82525050565b6000602082019050610ec06000830184610e9c565b92915050565b600081519050919050565b600082825260208201905092915050565b6000819050602082019050919050565b6000819050919050565b610f0581610ef2565b82525050565b610f1481610e8a565b82525050565b60008115159050919050565b610f2f81610f1a565b82525050565b60a082016000820151610f4b6000850182610efc565b506020820151610f5e6020850182610f0b565b506040820151610f716040850182610efc565b506060820151610f846060850182610efc565b506080820151610f976080850182610f26565b50505050565b6000610fa98383610f35565b60a08301905092915050565b6000602082019050919050565b6000610fcd82610ec6565b610fd78185610ed1565b9350610fe283610ee2565b8060005b83811015611013578151610ffa8882610f9d565b975061100583610fb5565b925050600181019050610fe6565b5085935050505092915050565b6000602082019050818103600083015261103a8184610fc2565b905092915050565b600080fd5b61105081610ef2565b811461105b57600080fd5b50565b60008135905061106d81611047565b92915050565b6000806040838503121561108a57611089611042565b5b60006110988582860161105e565b92505060206110a98582860161105e565b9150509250929050565b6000602082840312156110c9576110c8611042565b5b60006110d78482850161105e565b91505092915050565b6110e981610ef2565b82525050565b6110f881610f1a565b82525050565b600060a08201905061111360008301886110e0565b6111206020830187610e9c565b61112d60408301866110e0565b61113a60608301856110e0565b61114760808301846110ef565b9695505050505050565b7f4e487b7100000000000000000000000000000000000000000000000000000000600052601160045260246000fd5b600061118b82610ef2565b91507fffffffffffffffffffffffffffffffffffffffffffffffffffffffffffffffff82036111bd576111bc611151565b5b600182019050919050565b7f4e487b7100000000000000000000000000000000000000000000000000000000600052604160045260246000fd5b7f4e487b7100000000000000000000000000000000000000000000000000000000600052603260045260246000fd5b600082825260208201905092915050565b7f4f6e6c7920746865206f776e65722063616e206c6973742074686520686f757360008201527f652e000000000000000000000000000000000000000000000000000000000000602082015250565b6000611293602283611226565b915061129e82611237565b604082019050919050565b600060208201905081810360008301526112c281611286565b9050919050565b7f5072696365206d7573742062652067726561746572207468616e207a65726f2e600082015250565b60006112ff602083611226565b915061130a826112c9565b602082019050919050565b6000602082019050818103600083015261132e816112f2565b9050919050565b600060608201905061134a60008301866110e0565b61135760208301856110e0565b6113646040830184610e9c565b949350505050565b7f486f757365206973206e6f74206c697374656420666f722073616c652e000000600082015250565b60006113a2601d83611226565b91506113ad8261136c565b602082019050919050565b600060208201905081810360008301526113d181611395565b9050919050565b7f496e636f72726563742076616c75652073656e742e0000000000000000000000600082015250565b600061140e601583611226565b9150611419826113d8565b602082019050919050565b6000602082019050818103600083015261143d81611401565b9050919050565b600061144f82610ef2565b915061145a83610ef2565b925082820390508181111561147257611471611151565b5b92915050565b600061148382610ef2565b915061148e83610ef2565b925082820261149c81610ef2565b915082820484148315176114b3576114b2611151565b5b5092915050565b7f4e487b7100000000000000000000000000000000000000000000000000000000600052601260045260246000fd5b60006114f482610ef2565b91506114ff83610ef2565b92508261150f5761150e6114ba565b5b828204905092915050565b600060808201905061152f60008301876110e0565b61153c60208301866110e0565b6115496040830185610e9c565b6115566060830184610e9c565b95945050505050565b7f4f6e6c7920746865206f776e65722063616e20756e6c6973742074686520686f60008201527f7573652e00000000000000000000000000000000000000000000000000000000602082015250565b60006115bb602483611226565b91506115c68261155f565b604082019050919050565b600060208201905081810360008301526115ea816115ae565b9050919050565b7f486f757365206973206e6f74206c69737465642e000000000000000000000000600082015250565b6000611627601483611226565b9150611632826115f1565b602082019050919050565b600060208201905081810360008301526116568161161a565b9050919050565b7f54686520757365722068617320616c726561647920636c61696d65642074686560008201527f2070726f70657274790000000000000000000000000000000000000000000000602082015250565b60006116b9602983611226565b91506116c48261165d565b604082019050919050565b600060208201905081810360008301526116e8816116ac565b9050919050565b6000819050919050565b6000611704826116ef565b91507f7fffffffffffffffffffffffffffffffffffffffffffffffffffffffffffffff820361173657611735611151565b5b60018201905091905056fea2646970667358221220f799582512431e017d63fe8a87b1649c3e1cc3bedf18a08d75ce0ce5593c27ad64736f6c63430008140033",
  "linkReferences": {},
  "deployedLinkReferences": {}
}